S00D00006E657732712E737265632A
S1130000FDC000001BC1000019C1000017C10000A1
S113001015C1000013C1000011C100000FC1000090
S11300200DC100000BC1000009C1000007C10000A0
S113003005C1000003C100000C942B080C9458085F
S11300400C9485080C94B2080C94DF080C940C09E9
S11300500C9439090C9466090C9493090C94C00906
S1130060EDC00000EBC00000E9C00000E7C00000E4
S1130070E5C00000E3C00000E1C00000DFC00000F4
S1130080DDC00000DBC00000D9C00000D7C0000004
S1130090D5C00000D3C00000D1C00000CFC0000014
S11300A0CDC00000CBC00000C9C00000C7C0000024
S11300B0C5C00000C3C00000C1C000000C94FB0A0E
S11300C00C94280B0C94550B0C94820B0C94AF0BD2
S11300D00C94DC0BB3C00000B1C00000AFC0000042
S11300E0ADC00000ABC00000A9C00000A7C0000064
S11300F0A5C00000A3C00000A1C000009FC0000074
S11301009DC000009BC0000099C0000097C0000083
S113011095C0000093C0000091C000008FC0000093
S11301208DC000008BC0000089C0000087C00000A3
S113013085C000000C94ED090C941A0A0C94470A2B
S11301400C94740A0C94A10A0C94CE0A77C0000093
S113015075C0000073C0000071C000006FC00000D3
S11301606DC000006BC0000069C0000067C00000E3
S113017065C0000063C0000061C000005FC00000F3
S11301805DC000005BC0000059C0000057C0000003
S113019055C0000053C0000051C000004FC0000013
S11301A04DC000004BC0000049C0000047C0000023
S11301B00C94090C0C94360C0C94630C0C94900C59
S11301C00C94BD0C0C94EA0C39C0000037C000003C
S11301D035C0000033C0000031C000002FC0000053
S11301E02DC000002BC0000029C0000027C0000063
S11301F025C0000023C0000021C0000011241FBE40
S1130200CFEFCDBFDFE9DEBF00E00CBF10E2A0E01E
S1130210B0E2EAE5FCE100E00BBF02C007900D92FA
S1130220A430B107D9F720E2A4E0B0E201C01D92E6
S1130230A23CB207E1F76ED60C942B0EE1CE80936C
S11302400206609302068093050660930606609397
S1130250010608953F93609302068093010633E0FC
S11302603A95F1F780930206609301063F918091DD
S11302700806842308958093060680930106089552
S113028080932206609322068093250660932606B7
S11302906093210608953F9360932206809321067C
S11302A033E03A95F1F780932206609321063F915B
S11302B0809128068423089580932606809321063E
S11302C00895A4E1B0E0E7E6F1E00C94FA0D0FB76D
S11302D00078198290910420913019F091E0909364
S11302E0042090E09C0129583F4D2E873F87F90157
S11302F020812A87FC01ED58FF4D20812887209119
S1130300782030917720232B2E831C829C01275840
S11303103F4D288B398BF90120812B878B589F4DBA
S1130320FC018081898780917A2090917920892BA2
S11303308F831D82F894AA84AA2009F467C11885C2
S1130340EE85FF85808197DF8A2D612F78DFCC24AD
S1130350DD24D5FC48C08FB7802B8FBF0000F894F4
S11303608A2D612F4A8576DF8C830894C11CD11CA9
S1130370909100209F5F90930020923030F0923053
S113038021F0933011F010920020882311F3809112
S1130390782090917720892B8E8368C0D5FC23C068
S11303A08FB7802B8FBF0000F8948A2D612F4B8567
S11303B072DF8D830894C11CD11C909100209F5F33
S11303C090930020923030F0923021F0933011F06D
S11303D010920020882311F380917A209091792043
S11303E0892B8F8343C068E770E2DE0116968AE0AA
S11303F0E82EF12CEC0EFD1E9E012E5F3F4F92E085
S113040080E0812C40E2942EFB0131974081FB0176
S11304105081452B4C93F70151917F01F901508391
S11304204423C1F014C0F901508150FF09C0E82FE2
S1130430F0E0EE0FFF1FE35FFF4D8082918201C069
S113044040FD8F5F46954C935695F90150834C912E
S1130450442349F791506E5F7F4F11962F5F3F4FB2
S1130460992391F61A8618861B8619868FB7802BD6
S11304708FBF10920520DE0116969AE0892E912CEA
S11304808C0E9D1E24E0622E712C6C0E7D1E38E7AE
S1130490432E30E2532E42E0E42EF12CEC0EFD1EEE
S11304A054E7252E50E2352E9E01285F3F4F2C87BE
S11304B03D8730E01C8A70E0BB2440E0CA8ADB8AB6
S11304C0C02EC1012A2CA12E8C018C91882309F401
S11304D067C0F4018081882309F462C0F30180813C
S11304E0F7018083F80131972081F8018081282B5E
S11304F060E036C050FF29C022C020FF1EC047174D
S1130500D9F481E090E0062E02C0880F991F0A9466
S1130510E2F78095EC85FD85908198239083E32F05
S1130520F0E0EE0FFF1FE35FFF4D8A899B89808314
S113053091835E7F39F00AC07F5F26956F5F222327
S1130540E1F604C091E09C8B01C080FD4F5F9C915B
S113055090FD3F5FF70180818695808396959C93FB
S11305608C91882329F0F7015081552309F0C2CFDB
S1130570F4019081F301808180958923F4018083C3
S1130580F30110821C92FC89F130D1F41A2DA22CB3
S11305900C2DCA88DB8830930520882399F134C058
S11305A0F20131978081F2019081892B05C0898104
S11305B080FD3F5F89818695898389818823B9F786
S11305C0B39411960894811C911C0894611C711CAD
S11305D082E090E0480E591E0894E11CF11C0E5F65
S11305E01F4FEC85FD853196EC87FD87F2E0BF1641
S11305F009F06BCF1A2DA22C0C2DCA88DB883093FE
S1130600052002C0CC24DD24F89403C010E0CC24DF
S1130610DD248A85882309F09CCEEB84EE2091F0BA
S1130620EE85FF85808127DE80910620882309F0EE
S1130630B5CE81E08093062019858E2D612F20DEB2
S1130640AE2CACCEE889F989808136DEEE85FF8553
S1130650808111DEE889F98980812EDE10920620DE
S11306608FB7802B8FBF6496E2E10C94130EFF9238
S11306700F931F93CF93DF938C01EB01FF2403C0EF
S11306808F2D49D1F39480913A20F816C8F3109233
S11306903520109236200093072010930820CE01B5
S11306A006D4CDB7DEB7E5E00C94200EFC0180E45F
S11306B090E0808391831282138280E095E08483AA
S11306C095830895CF93C0E003C08C2F24D1CF5FCE
S11306D080913A20C817C8F3CF91089510923A2018
S11306E084E080932F2084E18093322095E09093DE
S11306F033201092312080933020EFE2F0E281E049
S1130700829383E08683D8D310920B2010920C201E
S113071008951F93CF93DF931092092010920A201B
S11307204091352050913620809335209093362087
S11307302091372030913820241B350B280F391F86
S1130740C0E003C0285C3040CF5F283C3105D0F7BF
S1130750209337203093382080913920882341F02A
S11307608C1718F41092392003C08C1B8093392005
S1130770B4D3E0910B20F0910C20309709F0199537
S113078010E0D0E005C08D2F6C2FD9D0182BDF5F7F
S113079050913A20D517B8F3112349F080910920DC
S11307A090910A2091608093092090930A201092DE
S11307B02D20ABE3B0E240E081E090E018C02C9142
S11307C0287199F0E42FE695E695E695F0E0E35F6D
S11307D0FF4D242F2770BC0102C0660F771F2A9596
S11307E0E2F79B0130A1322B30A34F5F16964517D9
S11307F031F78091092090910A20DF91CF911F91C8
S1130800089590913A20A92FB0E0FD01EE0FFF1F4B
S1130810EA0FFB1FEE0FFF1FE55CFF4D438367707C
S113082085832370660F660F660F262B24839F5FD4
S113083090933A2008951F93CF93DF93C82FD0E06D
S1130840FE01EE0FFF1FEC0FFD1FEE0FFF1FE55C17
S1130850FF4D9581238130E000902E2002C0359514
S113086027950A94E2F7122F243008F414E020911B
S11308703A20821760F5892F04D3412F50E0169552
S11308801695212F30E0241B350B2817390764F403
S1130890FE01EE0FFF1FEC0FFD1FEE0FFF1FE55CC7
S11308A0FF4D24812B7F2483509541955F4F48173A
S11308B059077CF0FE01EE0FFF1FEC0FFD1FEE0F3A
S11308C0FF1FE55CFF4D24812460248302C080E087
S11308D090E0DF91CF911F91089590E0FC01EE0F1D
S11308E0FF1FE80FF91FEE0FFF1FE55CFF4D258189
S11308F082E080838091092090910A208260809315
S1130900092090930A201282EBE6F0E2E20FF11D37
S113091080E880830895CF93C82FDFDF8C2F90E089
S1130920FC01EE0FFF1FE80FF91FEE0FFF1FE55C40
S1130930FF4D81E080838FE08183CF9108952F92D2
S11309403F924F925F926F927F928F929F92BF924B
S1130950CF92DF92EF92FF920F931F93CF93DF9387
S11309600F92CDB7DEB7082F162F65DF4C01C02ECE
S1130970DD24B601660F771FFB01EC0DFD1DEE0FA4
S1130980FF1FE55CFF4D2481438150E0822F83707B
S113099090E00196FA0102C0F595E7958A95E2F791
S11309A0CF01E23008F482E0DA01A81BB109FB01AF
S11309B0EC0DFD1DEE0FFF1FE55CFF4D80818430C3
S11309C009F4E3C0853030F4813071F0823009F0ED
S11309D044C260C0803109F477C1803209F415C281
S11309E0883009F03AC2D8C14091092050910A20B8
S11309F0CA0192608093092090930A2085816181C5
S1130A0090E06A3080F0FC01EE0FFF1FE35EFF4DC3
S1130A10DC01AA0FBB1FA35FBF4D8D919C91119761
S1130A20808391831DC0DC01AA0FBB1FA35EBF4D51
S1130A302D913C911197FC01EE0FFF1FE35FFF4DD9
S1130A40808191818217930718F42150304005C0AA
S1130A502817390758F42F5F3F4F2D933C93119774
S1130A60486052604093092050930A206150F60177
S1130A70EE0FFF1FEC0DFD1DEE0FFF1FE55CFF4D9C
S1130A806183662311F4802F28DF809130208093C6
S1130A903920DBC122FF08C0A581B0E0A559BF4DB4
S1130AA01C9280E28083C8C1C40197FE02C080E02A
S1130AB090E08417950768F0F601EE0FFF1FEC0D28
S1130AC0FD1DEE0FFF1FE55CFF4D84E08083128265
S1130AD0BEC1112309F4C1C180913920882309F0D2
S1130AE0BCC1F601EE0FFF1FEC0DFD1DEE0FFF1F45
S1130AF0E55CFF4D258130E0D901AA0FBB1FA35E41
S1130B00BF4D8D919C911197F901EE0FFF1FE35F8B
S1130B10FF4D40815181F901E559FF4D8417950737
S1130B2068F42081210F208330913320305823171B
S1130B3008F493C120E82083019610C04817590790
S1130B40D0F42081211B208330E840913220532FA0
S1130B50541B521708F481C1308301978D939C93E1
S1130B6011978091092090910A2088608093092030
S1130B7090930A2072C18081813810F08150808363
S1130B80808187FD6AC18F5F4CC1C40197FE02C09A
S1130B9080E090E08417950708F445C180913020E7
S1130BA080933920F601EE0FFF1FEC0DFD1DEE0FB3
S1130BB0FF1FE55CFF4D82818F5F8283848190E01B
S1130BC088739070A3E096958795AA95E1F7B82E5F
S1130BD08823D1F54DC01017A9F1812F90E01C0195
S1130BE0220C331C280E391E220C331C6BE370E2DA
S1130BF0260E371EF101848190E08873907053E0D3
S1130C00969587955A95E1F7B816E1F4812F2983D3
S1130C1012DEF1013381AC01431B5109F2018081E1
S1130C20B401681B710929816417750714F4F30171
S1130C3007C0F1018081803111F0883019F4F70187
S1130C40108221E01F5F0DC020E010E083E0482EF9
S1130C50512C4E0E5F1E7F0162E070E0E60EF71E1F
S1130C60370180913A20181708F4B5CF222379F47C
S1130C7080912F20882359F08091092090910A2097
S1130C8098608093092090930A2081E001C080E05D
S1130C90F601EE0FFF1FEC0DFD1DEE0FFF1FE55CCF
S1130CA0FF4D228190912F20291708F4D7C020915D
S1130CB0092030910A2023602093092030930A20D0
S1130CC090E190831182CAC04091092050910A207A
S1130CD022FF0EC0A581B0E0A559BF4D80E88C93DA
S1130CE080E2808350614093092050930A204CC0D5
S1130CF0C40197FE02C080E090E09601220F331FEA
S1130D008A179B0778F42C0D3D1D220F331F255C99
S1130D103F4D88E0F90180838091092090910A2059
S1130D2094602EC0CA0181608093092090930A20A8
S1130D30F901EC0DFD1DEE0FFF1FE55CFF4D8281F7
S1130D4090912F20891710F48F5F82839091312026
S1130D509923E1F0F601EE0FFF1FEC0DFD1DEE0FE0
S1130D60FF1FE55CFF4D8181891718F4810F818392
S1130D700DC0802FD0DD8091092090910A209260CF
S1130D808093092090930A2081E001C080E0909133
S1130D9030209093392062C0809130208093392094
S1130DA08281882309F43FC0C40197FE02C080E019
S1130DB090E02091092030910A20A817B90790F4F7
S1130DC0F601EE0FFF1FEC0DFD1DEE0FFF1FE55C9E
S1130DD0FF4D80E1808321602093092030930A2015
S1130DE080E006C034602093092030930A2081E01B
S1130DF0F601EE0FFF1FEC0DFD1DEE0FFF1FE55C6E
S1130E00FF4D92819150928329C0A581B0E0A559EC
S1130E10BF4D8C918F5F8C9322FD08C087FF03C068
S1130E2080E180831AC0802F58DD17C09091342050
S1130E30891768F0802F6FDD8091092090910A2036
S1130E4090618093092090930A2081E007C08091EB
S1130E50092090910A209460F4CF80E00F90DF91F4
S1130E60CF911F910F91FF90EF90DF90CF90BF90A3
S1130E709F908F907F906F905F904F903F902F90B6
S1130E80089590E0FC0138962DE030E2EE0FFF1F4C
S1130E90E20FF31FDC01AA0FBB1FA20FB31F808157
S1130EA091812D913C911197821B930B089500978A
S1130EB011F0FC0119950895109277201092782072
S1130EC010927320109274201092792010927A203C
S1130ED01092752010927620089580917920909137
S1130EE07720892B41F0E0910720F091082030977A
S1130EF011F080E0199580917A2090917820892BC7
S1130F0041F0E0910720F0910820309711F081E042
S1130F101995089563D04AD0FDD578948FEF8093C6
S1130F206006C1E0D0E04DD620E030E0CE01022ED4
S1130F3001C0880F0A94EAF740912D2050E0022E58
S1130F4002C0559547950A94E2F79091640640FFD4
S1130F5002C0892B02C080958923809364062F5F89
S1130F603F4F2830310511F7DECF80917E209091DC
S1130F707F20019680937E2090937F2020910120F2
S1130F80309102208217930738F010927E2010923D
S1130F907F2081E080937D2080917B2090917C2034
S1130FA0019680937B2090937C20089580E098E0C4
S1130FB03ED5E0E0F8E088EE93E086A397A3808135
S1130FC0807F8460808387818C7F87838781816031
S1130FD0878365EB77E080E098E069C587E08093DC
S1130FE0A20001D096C58FEF8093700080937100AA
S1130FF080937200809373008093740080937500D3
S1131000809376006CE081E490E07DD59FB7F894FE
S1131010809150008260809350009FBF8091510066
S113102081FFFCCF61E080E490E06DD59FB7F89438
S1131030809150008E7F809350009FBF08959FB78A
S1131040F894E82FF0E0E059FF4F60958081682321
S113105060839FBF08951F920F920FB60F921124C1
S11310600BB60F922F933F934F935F936F937F939E
S11310708F939F93AF93BF93EF93FF93E091B62029
S1131080F091B720309709F01995FF91EF91BF9136
S1131090AF919F918F917F916F915F914F913F910C
S11310A02F910F900BBE0F900FBE0F901F901895AD
S11310B01F920F920FB60F9211240BB60F922F931B
S11310C03F934F935F936F937F938F939F93AF93CC
S11310D0BF93EF93FF93E091B420F091B520309744
S11310E009F01995FF91EF91BF91AF919F918F9165
S11310F07F916F915F914F913F912F910F900BBE14
S11311000F900FBE0F901F9018951F920F920FB65D
S11311100F9211240BB60F922F933F934F935F932B
S11311206F937F938F939F93AF93BF93EF93FF93AB
S1131130E091B220F091B320309709F01995FF9116
S1131140EF91BF91AF919F918F917F916F915F913B
S11311504F913F912F910F900BBE0F900FBE0F90A8
S11311601F9018951F920F920FB60F9211240BB671
S11311700F922F933F934F935F936F937F938F932C
S11311809F93AF93BF93EF93FF93E091B020F091BF
S1131190B120309709F01995FF91EF91BF91AF916C
S11311A09F918F917F916F915F914F913F912F917B
S11311B00F900BBE0F900FBE0F901F9018951F92AB
S11311C00F920FB60F9211240BB60F922F933F93E9
S11311D04F935F936F937F938F939F93AF93BF933B
S11311E0EF93FF93E091AE20F091AF20309709F098
S11311F01995FF91EF91BF91AF919F918F917F913D
S11312006F915F914F913F912F910F900BBE0F9073
S11312100FBE0F901F9018951F920F920FB60F924A
S113122011240BB60F922F933F934F935F936F93B9
S11312307F938F939F93AF93BF93EF93FF93E0912B
S1131240AC20F091AD20309709F01995FF91EF9102
S1131250BF91AF919F918F917F916F915F914F91CA
S11312603F912F910F900BBE0F900FBE0F901F90C8
S113127018951F920F920FB60F9211240BB60F926E
S11312802F933F934F935F936F937F938F939F938A
S1131290AF93BF93EF93FF93E091AA20F091AB201B
S11312A0309709F01995FF91EF91BF91AF919F91FC
S11312B08F917F916F915F914F913F912F910F90FB
S11312C00BBE0F900FBE0F901F9018951F920F9298
S11312D00FB60F9211240BB60F922F933F934F9397
S11312E05F936F937F938F939F93AF93BF93EF938A
S11312F0FF93E091A820F091A920309709F0199567
S1131300FF91EF91BF91AF919F918F917F916F91D9
S11313105F914F913F912F910F900BBE0F900FBE95
S11313200F901F9018951F920F920FB60F921124D1
S11313300BB60F922F933F934F935F936F937F93CB
S11313408F939F93AF93BF93EF93FF93E091A62066
S1131350F091A720309709F01995FF91EF91BF9173
S1131360AF919F918F917F916F915F914F913F9139
S11313702F910F900BBE0F900FBE0F901F901895DA
S11313801F920F920FB60F9211240BB60F922F9348
S11313903F934F935F936F937F938F939F93AF93F9
S11313A0BF93EF93FF93E091A420F091A520309791
S11313B009F01995FF91EF91BF91AF919F918F9192
S11313C07F916F915F914F913F912F910F900BBE41
S11313D00F900FBE0F901F9018951F920F920FB68B
S11313E00F9211240BB60F922F933F934F935F9359
S11313F06F937F938F939F93AF93BF93EF93FF93D9
S1131400E091A220F091A320309709F01995FF9163
S1131410EF91BF91AF919F918F917F916F915F9168
S11314204F913F912F910F900BBE0F900FBE0F90D5
S11314301F9018951F920F920FB60F9211240BB69E
S11314400F922F933F934F935F936F937F938F9359
S11314509F93AF93BF93EF93FF93E091A020F091FC
S1131460A120309709F01995FF91EF91BF91AF91A9
S11314709F918F917F916F915F914F913F912F91A8
S11314800F900BBE0F900FBE0F901F9018951F92D8
S11314900F920FB60F9211240BB60F922F933F9316
S11314A04F935F936F937F938F939F93AF93BF9368
S11314B0EF93FF93E0919E20F0919F20309709F0E5
S11314C01995FF91EF91BF91AF919F918F917F916A
S11314D06F915F914F913F912F910F900BBE0F90A1
S11314E00FBE0F901F9018951F920F920FB60F9278
S11314F011240BB60F922F933F934F935F936F93E7
S11315007F938F939F93AF93BF93EF93FF93E09158
S11315109C20F0919D20309709F01995FF91EF914F
S1131520BF91AF919F918F917F916F915F914F91F7
S11315303F912F910F900BBE0F900FBE0F901F90F5
S113154018951F920F920FB60F9211240BB60F929B
S11315502F933F934F935F936F937F938F939F93B7
S1131560AF93BF93EF93FF93E0919A20F0919B2068
S1131570309709F01995FF91EF91BF91AF919F9129
S11315808F917F916F915F914F913F912F910F9028
S11315900BBE0F900FBE0F901F9018951F920F92C5
S11315A00FB60F9211240BB60F922F933F934F93C4
S11315B05F936F937F938F939F93AF93BF93EF93B7
S11315C0FF93E0919820F0919920309709F01995B4
S11315D0FF91EF91BF91AF919F918F917F916F9107
S11315E05F914F913F912F910F900BBE0F900FBEC3
S11315F00F901F9018951F920F920FB60F921124FF
S11316000BB60F922F933F934F935F936F937F93F8
S11316108F939F93AF93BF93EF93FF93E0919620A3
S1131620F0919720309709F01995FF91EF91BF91B0
S1131630AF919F918F917F916F915F914F913F9166
S11316402F910F900BBE0F900FBE0F901F90189507
S11316501F920F920FB60F9211240BB60F922F9375
S11316603F934F935F936F937F938F939F93AF9326
S1131670BF93EF93FF93E0919420F09195203097DE
S113168009F01995FF91EF91BF91AF919F918F91BF
S11316907F916F915F914F913F912F910F900BBE6E
S11316A00F900FBE0F901F9018951F920F920FB6B8
S11316B00F9211240BB60F922F933F934F935F9386
S11316C06F937F938F939F93AF93BF93EF93FF9306
S11316D0E0919220F0919320309709F01995FF91B1
S11316E0EF91BF91AF919F918F917F916F915F9196
S11316F04F913F912F910F900BBE0F900FBE0F9003
S11317001F9018951F920F920FB60F9211240BB6CB
S11317100F922F933F934F935F936F937F938F9386
S11317209F93AF93BF93EF93FF93E0919020F09139
S11317309120309709F01995FF91EF91BF91AF91E6
S11317409F918F917F916F915F914F913F912F91D5
S11317500F900BBE0F900FBE0F901F9018951F9205
S11317600F920FB60F9211240BB60F922F933F9343
S11317704F935F936F937F938F939F93AF93BF9395
S1131780EF93FF93E0918E20F0918F20309709F032
S11317901995FF91EF91BF91AF919F918F917F9197
S11317A06F915F914F913F912F910F900BBE0F90CE
S11317B00FBE0F901F9018951F920F920FB60F92A5
S11317C011240BB60F922F933F934F935F936F9314
S11317D07F938F939F93AF93BF93EF93FF93E09186
S11317E08C20F0918D20309709F01995FF91EF919D
S11317F0BF91AF919F918F917F916F915F914F9125
S11318003F912F910F900BBE0F900FBE0F901F9022
S113181018951F920F920FB60F9211240BB60F92C8
S11318202F933F934F935F936F937F938F939F93E4
S1131830AF93BF93EF93FF93E0918A20F0918B20B5
S1131840309709F01995FF91EF91BF91AF919F9156
S11318508F917F916F915F914F913F912F910F9055
S11318600BBE0F900FBE0F901F9018951F920F92F2
S11318700FB60F9211240BB60F922F933F934F93F1
S11318805F936F937F938F939F93AF93BF93EF93E4
S1131890FF93E0918820F0918920309709F0199501
S11318A0FF91EF91BF91AF919F918F917F916F9134
S11318B05F914F913F912F910F900BBE0F900FBEF0
S11318C00F901F9018951F920F920FB60F9211242C
S11318D00BB60F922F933F934F935F936F937F9326
S11318E08F939F93AF93BF93EF93FF93E0918620E1
S11318F0F0918720309709F01995FF91EF91BF91EE
S1131900AF919F918F917F916F915F914F913F9193
S11319102F910F900BBE0F900FBE0F901F90189534
S11319201F920F920FB60F9211240BB60F922F93A2
S11319303F934F935F936F937F938F939F93AF9353
S1131940BF93EF93FF93E0918420F091852030972B
S113195009F01995FF91EF91BF91AF919F918F91EC
S11319607F916F915F914F913F912F910F900BBE9B
S11319700F900FBE0F901F9018951F920F920FB6E5
S11319800F9211240BB60F922F933F934F935F93B3
S11319906F937F938F939F93AF93BF93EF93FF9333
S11319A0E0918220F0918320309709F01995FF91FE
S11319B0EF91BF91AF919F918F917F916F915F91C3
S11319C04F913F912F910F900BBE0F900FBE0F9030
S11319D01F9018951F920F920FB60F9211240BB6F9
S11319E00F922F933F934F935F936F937F938F93B4
S11319F09F93AF93BF93EF93FF93E0918020F09177
S1131A008120309709F01995FF91EF91BF91AF9123
S1131A109F918F917F916F915F914F913F912F9102
S1131A200F900BBE0F900FBE0F901F901895CF9381
S1131A30CFB7F894811528E0920711F461E005C04E
S1131A40803428E0920731F462E083E0F8DA64E05D
S1131A5083E01CC0811529E0920731F461E084E041
S1131A60EEDA64E084E012C081152AE0920731F4D2
S1131A7061E085E0E4DA64E085E008C081159B401C
S1131A8099F461E086E0DBDA64E086E0D8DA8091FC
S1131A90BD208F3F09F4FFCF9FB7F8948091BD20FC
S1131AA08F5F8093BD209FBFCFBFCF9108958115D5
S1131AB028E0920729F46093B2207093B32008952C
S1131AC0803428E0920729F46093A6207093A7201D
S1131AD00895811529E0920729F460939E2070935C
S1131AE09F20089581152AE0920729F4609392209B
S1131AF070939320089581159B4021F46093862070
S1131B007093872008951BBEFC0128ED24BF6083D9
S1131B1008950895E7E7F0E285E5808311828283E2
S1131B201382E3E7F0E28AEA8083118282831382DC
S1131B3021E042E360E080E00E94010421E042E30E
S1131B4060E081E00E94010421E042E360E082E081
S1131B500E94010421E042E360E083E00E9401046A
S1131B6021E042E360E084E00E94010421E042E3DA
S1131B7060E085E00E94010421E042E360E086E049
S1131B800E94010421E042E360E087E00E94010436
S1131B9060E070E081E691E00E943703EEE2F0E25B
S1131BA084E0818384E1848395E095839FEF93832C
S1131BB0828310828AE0868310920B2010920C207C
S1131BC0089580917D208823A1F010927D2080913A
S1131BD07B2090917C200E9489038093BA2090936B
S1131BE0BB20882791708093B8209093B920892BCB
S1131BF071F708952F923F924F925F926F927F9266
S1131C008F929F92AF92BF92CF92DF92EF92FF9208
S1131C100F931F93CF93DF93CDB7DEB7CA1BDB0BB4
S1131C20CDBFDEBF19942A88398848885F846E84C2
S1131C307D848C849B84AA84B984C884DF80EE80EC
S1131C40FD800C811B81AA81B981CE0FD11DCDBF2E
S10D1C50DEBFED010895F894FFCF04
S1071C5A013200004F
S9030000FC
