S00F0000716D61747269782E737265630F
S11300000C94FE000C941F010C941F010C941F010E
S11300100C941F010C941F010C941F010C941F01DC
S11300200C941F010C941F010C941F010C941F01CC
S11300300C941F010C941F010C941F010C941F01BC
S11300400C941F010C941F010C941F010C941F01AC
S11300500C941F010C941F010C941F010C941F019C
S11300600C947B020C941F010C941F010C941F012F
S11300700C941F010C941F010C941F010C941F017C
S11300800C941F010C941F010C941F010C941F016C
S11300900C941F010C941F010C941F010C941F015C
S11300A00C941F010C941F010C941F010C941F014C
S11300B00C941F010C941F010C941F010C941F013C
S11300C00C941F010C941F010C941F010C941F012C
S11300D00C941F010C941F010C941F010C941F011C
S11300E00C941F010C941F010C941F010C941F010C
S11300F00C941F010C941F010C941F010C941F01FC
S11301000C941F010C941F010C941F010C941F01EB
S11301100C941F010C941F010C941F010C941F01DB
S11301200C941F010C941F010C941F010C941F01CB
S11301300C941F010C941F010C941F010C941F01BB
S11301400C941F010C941F010C941F010C941F01AB
S11301500C941F010C941F010C941F010C941F019B
S11301600C941F010C941F010C941F010C941F018B
S11301700C941F010C941F010C941F010C941F017B
S11301800C941F010C941F010C941F010C941F016B
S11301900C941F010C941F010C941F010C941F015B
S11301A00C941F010C941F010C941F010C941F014B
S11301B00C941F010C941F010C941F010C941F013B
S11301C00C941F010C941F010C941F010C941F012B
S11301D00C941F010C941F010C941F010C941F011B
S11301E00C941F010C941F010C941F010C941F010B
S11301F00C941F010C941F010C941F0111241FBEA9
S1130200CFEFCDBFDFE9DEBF00E00CBF10E2A0E01E
S1130210B0E2EEE5F7E100E00BBF02C007900D92FB
S1130220AE30B107D9F720E2AEE0B0E201C01D92D2
S1130230A738B207E1F70E94B2090C94AD0B0C94F5
S11302400000CF93DF93CDB7DEB780EC98E020ECCD
S113025038E0F9012081206DFC01208380EC98E0D6
S113026020EC38E0F90120812C60FC01208380EC33
S113027098E020EC38E0F9012081FC01208380EC37
S113028098E020EC38E0F90121812360FC0121830E
S1130290DF91CF910895CF93DF9300D01F92CDB714
S11302A0DEB78B836C8388E089839B818C8189276B
S11302B081708A838C8186958C838B8186958B83D0
S11302C08A81882321F09B818CE889278B8389810B
S11302D0815089838981882341F78B812496CDBFFE
S11302E0DEBFDF91CF910895CF93DF931F921F92CA
S11302F0CDB7DEB719821A820CC089819A81835ED8
S11303009F4D2AEAFC01208389819A810196898381
S11303109A8389819A81409784F380E190E089836C
S11303209A830CC089819A81835E9F4D23EAFC01E4
S1130330208389819A81019689839A8389819A810C
S1130340489784F388E190E089839A830CC089817B
S11303509A81835E9F4D22E5FC01208389819A81E5
S1130360019689839A8389819A814C9784F38CE1DD
S113037090E089839A830CC089819A81835E9F4D22
S113038020E5FC01208389819A81019689839A83DF
S113039089819A81809784F380E290E089839A83AB
S11303A00CC089819A81835E9F4D22E5FC012083E4
S11303B089819A81019689839A8389819A81859713
S11303C084F385E290E089839A830CC089819A81C1
S11303D0835E9F4D20E5FC01208389819A810196EB
S11303E089839A8389819A81889784F388E290E04B
S11303F089839A830CC089819A81835E9F4D20E50D
S1130400FC01208389819A81019689839A83898159
S11304109A818B9784F38BE290E089839A830CC052
S113042089819A81835E9F4D20E5FC012083898127
S11304309A81019689839A8389819A81C09784F3EA
S113044080E390E089839A830BC089819A81835EDB
S11304509F4DFC01108289819A81019689839A8338
S113046089819A818834910584F388E490E08983B2
S11304709A830BC089819A81835E9F4DFC0110820F
S113048089819A81019689839A8389819A818036A8
S1130490910584F380E690E089839A8389819A8127
S11304A0835E9F4DFC01108281E690E089839A83EC
S11304B089819A81835E9F4D22E0FC01208382E63C
S11304C090E089839A8389819A81835E9F4D24E594
S11304D0FC01208383E690E089839A8389819A8151
S11304E0835E9F4DFC0110828DE190E20F900F908E
S11304F0DF91CF9108951F920F9200903F000F92C9
S1130500112400903B000F922F933F938F939F935E
S1130510EF93FF93CF93DF93CDB7DEB7F89480E4E6
S113052096E020E436E0F90124812061FC01248373
S113053080EC98E0FC018381809311207894DF9112
S1130540CF91FF91EF919F918F913F912F910F90B8
S113055000923B000F9000923F000F901F9018955F
S1130560CF93DF93CDB7DEB7A197CDBFDEBF80E4D5
S113057096E0FC01808580938620F9C080E090E0BD
S1130580A0E2B1E489839A83AB83BC832BEA3AEA81
S11305904AE25FE369817A818B819C810E94400BEE
S11305A0DC01CB018D839E83AF83B88720E030E0EC
S11305B040E05FE369817A818B819C810E94400BDA
S11305C0DC01CB0189879A87AB87BC8720E030E0C8
S11305D040E85FE36D817E818F8198850E94200AC7
S11305E088231CF481E08D87B6C020E03FEF4FE7FD
S11305F057E469857A858B859C850E943B0B181688
S11306000CF07FC020E030E04AE754E469817A814D
S11306108B819C810E94250ADC01CB018E879F87F8
S1130620A88BB98B20E030E04AEF53E46E857F85D8
S1130630888999890E94400BDC01CB018A8B9B8BB2
S1130640AC8BBD8B20E030E040E85FE36A897B89B6
S11306508C899D890E94200A88232CF481E090E0F3
S11306608E8B9F8B41C020E03FEF4FE757E46A89B0
S11306707B898C899D890E943B0B18165CF520E0D0
S113068030E040E251E46E857F85888999890E9433
S1130690400BDC01CB01BC01CD010E94970ADC01B7
S11306A0CB018E8B9F8B0FC082E390E0888F998F54
S11306B0888D998D0197F1F7888F998F8E899F89FD
S11306C001978E8B9F8B8E899F89892B69F789A1CE
S11306D08D8741C06A897B898C899D890E94970A8C
S11306E0DC01CB018E8B9F8B8E899F898A8F9B8F98
S11306F08A8D9B8D0197F1F78A8F9B8F89A18D87B6
S11307002AC020E030E04FE753E46D817E818F8181
S113071098850E943B0B1816ACF469857A858B8505
S11307209C850E94970ADC01CB018C8F9D8F8C8D58
S11307309D8D8E8F9F8F8E8D9F8D0197F1F78E8F5C
S11307409F8F0FC06D817E818F8198850E94970A4B
S1130750DC01CB018D878D8588A388A18A95F1F76B
S113076088A380E496E0FC018085809386208091B4
S11307708620882F90E088709927892B09F4FECE73
S1130780A196CDBFDEBFDF91CF910895CF93DF93C4
S1130790CDB7DEB7A197CDBFDEBF89A30E94B0025B
S11307A080E496E020E436E0F90124812F7EFC0108
S11307B0248380EC98E029A1FC01238380E090E06D
S11307C0A0E2B2E489839A83AB83BC832BEA3AEA3E
S11307D04AE25FE369817A818B819C810E94400BAC
S11307E0DC01CB018D839E83AF83B88720E030E0AA
S11307F040E05FE369817A818B819C810E94400B98
S1130800DC01CB0189879A87AB87BC8720E030E085
S113081040E85FE36D817E818F8198850E94200A84
S113082088231CF481E08D87B2C020E03FEF4FE7BE
S113083057E469857A858B859C850E943B0B181645
S11308400CF07BC020E030E04AE754E469817A810F
S11308508B819C810E94250ADC01CB018E879F87B6
S1130860A88BB98B20E030E04AEF53E46E857F8596
S1130870888999890E94400BDC01CB018A8B9B8B70
S1130880AC8BBD8B20E030E040E85FE36A897B8974
S11308908C899D890E94200A88232CF481E090E0B1
S11308A08E8B9F8B3FC020E03FEF4FE757E46A8970
S11308B07B898C899D890E943B0B18164CF520E09E
S11308C030E040E251E46E857F85888999890E94F1
S11308D0400BDC01CB01BC01CD010E94970ADC0175
S11308E0CB018E8B9F8B0FC082E390E0888F998F12
S11308F0888D998D0197F1F7888F998F8E899F89BB
S113090001978E8B9F8B8E899F89892B69F73FC0B6
S11309106A897B898C899D890E94970ADC01CB01B5
S11309208E8B9F8B8E899F898A8F9B8F8A8D9B8DBF
S11309300197F1F78A8F9B8F2AC020E030E04FE7C0
S113094053E46D817E818F8198850E943B0B18163C
S1130950ACF469857A858B859C850E94970ADC01B5
S1130960CB018C8F9D8F8C8D9D8D8E8F9F8F8E8DC7
S11309709F8D0197F1F78E8F9F8F0FC06D817E81C0
S11309808F8198850E94970ADC01CB018D878D8524
S113099088A388A18A95F1F788A3A196CDBFDEBF6D
S11309A0DF91CF910895CF93DF93CDB7DEB79091C8
S11309B0132080911420981799F503C08FE00E94AA
S11309C0C60380911120803FC9F7809101200E94C5
S11309D0C603809112200E94C60380911120809347
S11309E082209091822080910E20981749F0809166
S11309F01020813029F480910A208093132010C0A4
S1130A009091822080910E20981731F00E94130556
S1130A1081E08093102004C08091092080931320EA
S1130A20DF91CF910895CF93DF93CDB7DEB7809157
S1130A3002200E94C603809102200E94C603809176
S1130A4012200E94C6031092852013C02091832097
S1130A503091842080918520882F90E0820F931F0D
S1130A60FC0180810E94C603809185208F5F809362
S1130A70852080918520843648F380910F200E9440
S1130A80C603809112200E94C603809103200E9415
S1130A90C603DF91CF910895CF93DF93CDB7DEB72F
S1130AA02E97CDBFDEBF9091132080910920981717
S1130AB009F0CEC080E296E022E0FC01248380911C
S1130AC004200E94C603809112200E94C6038091D4
S1130AD0112080938220809112200E94C60380916D
S1130AE00420682F80E00E944B0180938120809134
S1130AF0812080930F209091822080910F20692F74
S1130B000E944B018093812090918120809111203B
S1130B10981729F080910A208093132099C080911E
S1130B208220882F90E080749927892B29F0809166
S1130B300B20809313208CC080918220882F90E01A
S1130B408F7999274F9709F07FC080E096E0FC01E8
S1130B50148280E696E0FC01148280EA96E0FC01AF
S1130B60148280E090E0A0E2B1E489839A83AB83AD
S1130B70BC8320E030E04AEF53E469817A818B81C1
S1130B809C810E94400BDC01CB018D839E83AF834B
S1130B90B88720E030E040E85FE36D817E818F819B
S1130BA098850E94200A88232CF481E090E08987AC
S1130BB09A873FC020E03FEF4FE757E46D817E8185
S1130BC08F8198850E943B0B18164CF520E030E08D
S1130BD040E251E469817A818B819C810E94400BBF
S1130BE0DC01CB01BC01CD010E94970ADC01CB01E1
S1130BF089879A870FC082E390E08B879C878B85D7
S1130C009C850197F1F78B879C8789859A85019745
S1130C1089879A8789859A85892B69F719C06D8197
S1130C207E818F8198850E94970ADC01CB01898798
S1130C309A8789859A858D879E878D859E8501975C
S1130C40F1F78D879E8704C080910C208093132038
S1130C502E96CDBFDEBFDF91CF910895CF93DF9362
S1130C60CDB7DEB76C97CDBFDEBF909113208091D6
S1130C700C20981709F0B1C18091822088230CF4CC
S1130C80CAC0809182208F71809315208091152095
S1130C90282F30E081E090E002C0880F991F2A9548
S1130CA0E2F7092E000CAA0BBB0B8093192090933A
S1130CB01A20A0931B20B0931C208091192090919E
S1130CC01A20A0911B20B0911C20809316208091A3
S1130CD0192090911A20A0911B20B0911C20892FDB
S1130CE09A2FAB2FBB2780931720809119209091C6
S1130CF01A20A0911B20B0911C20CD01AA27BB274C
S1130D008093182080E096E020911620FC01248333
S1130D1080EA96E020911720FC01248380E696E087
S1130D2020911820FC0124838091092080931320B2
S1130D3080E090E0A0E2B1E489839A83AB83BC8332
S1130D4020E030E04AEF53E469817A818B819C8111
S1130D500E94400BDC01CB018D839E83AF83B88757
S1130D6020E030E040E85FE36D817E818F819885EB
S1130D700E94200A88232CF481E090E089879A87D6
S1130D803FC020E03FEF4FE757E46D817E818F81C4
S1130D9098850E943B0B18164CF520E030E040E2A9
S1130DA051E469817A818B819C810E94400BDC0132
S1130DB0CB01BC01CD010E94970ADC01CB018987DC
S1130DC09A870FC082E390E08B879C878B859C85F4
S1130DD00197F1F78B879C8789859A850197898785
S1130DE09A8789859A85892B69F7F7C06D817E81F9
S1130DF08F8198850E94970ADC01CB0189879A87A5
S1130E0089859A858D879E878D859E850197F1F7C3
S1130E108D879E87E2C0809105200E94C603809141
S1130E2012200E94C6038091112080931620809185
S1130E3012200E94C6038091112080931720809174
S1130E4012200E94C6038091112080931820809163
S1130E5012200E94C60380910520682F80E00E9422
S1130E604B01809381208091812080930F20909169
S1130E70162080910F20692F0E944B0180938120BE
S1130E808091812080930F209091172080910F20D2
S1130E90692F0E944B01809381208091812080934F
S1130EA00F209091182080910F20692F0E944B01F0
S1130EB0809381209091812080911120981729F0AE
S1130EC080910A208093132088C080E096E02091CE
S1130ED01620FC01248380EA96E020911720FC016F
S1130EE0248380E696E020911820FC0124838091DD
S1130EF009208093132080E090E0A0E2B1E48F8782
S1130F00988BA98BBA8B20E030E04AEF53E46F85CD
S1130F10788989899A890E94400BDC01CB018B8BEB
S1130F209C8BAD8BBE8B20E030E040E85FE36B89A7
S1130F307C898D899E890E94200A88232CF481E073
S1130F4090E08F8B988F3FC020E03FEF4FE757E44E
S1130F506B897C898D899E890E943B0B18164CF500
S1130F6020E030E040E251E46F85788989899A89EC
S1130F700E94400BDC01CB01BC01CD010E94970A09
S1130F80DC01CB018F8B988F0FC082E390E0898FB7
S1130F909A8F898D9A8D0197F1F7898F9A8F8F890E
S1130FA0988D01978F8B988F8F89988D892B69F7EE
S1130FB014C06B897C898D899E890E94970ADC0103
S1130FC0CB018F8B988F8F89988D8B8F9C8F8B8D76
S1130FD09C8D0197F1F78B8F9C8F6C96CDBFDEBFF4
S1130FE0DF91CF910895CF93DF93CDB7DEB72E97DE
S1130FF0CDBFDEBF9091132080910B20981709F08C
S1131000CAC0809106200E94C603809112200E94CB
S1131010C6038091112080938220809112200E9427
S1131020C60380910620682F80E00E944B018093C4
S113103081208091812080930F2090918220809143
S11310400F20692F0E944B01809381209091812071
S113105080911120981729F080910A208093132001
S11310609AC080918220882F90E0847699278034DA
S1131070910571F404C0809100200E94C603809100
S11310808220803FC1F7809109208093132083C080
S113109080918220882F90E084769927892B29F0EB
S11310A080910A208093132076C080E090E0A0E233
S11310B0B1E489839A83AB83BC8320E030E04AEFB8
S11310C053E469817A818B819C810E94400BDC010D
S11310D0CB018D839E83AF83B88720E030E040E866
S11310E05FE36D817E818F8198850E94200A882329
S11310F02CF481E090E089879A873FC020E03FEF9D
S11311004FE757E46D817E818F8198850E943B0B68
S113111018164CF520E030E040E251E469817A8110
S11311208B819C810E94400BDC01CB01BC01CD0171
S11311300E94970ADC01CB0189879A870FC082E35A
S113114090E08B879C878B859C850197F1F78B8733
S11311509C8789859A85019789879A8789859A8545
S1131160892B69F714C06D817E818F8198850E94D7
S1131170970ADC01CB0189879A8789859A858D87AF
S11311809E878D859E850197F1F78D879E87809137
S11311900920809313202E96CDBFDEBFDF91CF911F
S11311A00895CF93DF93CDB7DEB79091132080914C
S11311B00A20981709F0D3C0109210208091822041
S11311C0882F90E080729927892BD1F180E296E0F4
S11311D021E0FC012483809107200E94C6038091B2
S11311E012200E94C60380910720682F80E00E948D
S11311F04B01809381208091812080930F209091D6
S1131200112080910F20692F0E944B01809381202F
S113121080EC98E0FC01938180918120981729F05B
S113122080910A20809313209AC080E696E0209152
S11312301120FC01248380910B20809313208FC004
S113124080918220882F90E084709927892B09F45B
S113125082C080E296E022E0FC0124838091082091
S11312600E94C603809112200E94C60380EC98E07D
S1131270FC01838180931620809112200E94C60372
S113128080EC98E0FC0183818093172080911220E8
S11312900E94C60380EC98E0FC01838180931820AF
S11312A0809112200E94C60380910820682F80E05C
S11312B00E944B01809381208091812080930F2094
S11312C09091162080910F20692F0E944B018093EA
S11312D081208091812080930F209091172080910C
S11312E00F20692F0E944B018093812080918120DF
S11312F080930F209091182080910F20692F0E94D5
S11313004B01809381208091812080930F2080EC79
S113131098E0FC01938180918120981729F08091B5
S11313200A20809313201BC080E096E020911620B1
S1131330FC01248380EA96E020911720FC01248399
S113134080E696E020911820FC01248380910920F6
S11313508093132004C08091142080931320DF9184
S1131360CF910895CF93DF93CDB7DEB70E94740178
S11313708093832090938420109285201CC0209118
S113138083203091842080918520882F90E0820FE3
S1131390931FFC01908180910E20692F0E944B01C4
S11313A0809381208091812080930E2080918520DC
S11313B08F5F8093852080918520843600F380E0C0
S11313C096E02FEFFC01208380E296E02FEFFC01F2
S11313D0208380E696E02FEFFC01208380EA96E0EC
S11313E02FEFFC01208380E496E024EBFC012083B2
S11313F080E496E020E436E0F90124812461FC01D4
S113140024830E94210180EA90E020EA30E0F9017F
S113141022812460FC01228378941092112010927E
S1131420102080911420809313200E94D3040E94E2
S11314304C050E942E060E94F3070E94D108F5CFA6
S11314400E94C60A08F481E008950E94390A0C94A7
S1131450010B0E94FA0A58F00E94F30A40F029F4A2
S11314605F3F29F00C94EA0A51110C94350B0C944B
S1131470F00A0E94120B68F39923B1F3552391F3F8
S1131480951B550BBB27AA2762177307840738F0EF
S11314909F5F5F4F220F331F441FAA1FA9F335D04C
S11314A00E2E3AF0E0E832D091505040E695001C00
S11314B0CAF72BD0FE2F29D0660F771F881FBB1FBA
S11314C0261737074807AB07B0E809F0BB0B802D98
S11314D0BF01FF2793585F4F3AF09E3F510578F0C4
S11314E00C94EA0A0C94350B5F3FE4F3983ED4F372
S11314F0869577956795B795F7959F5FC9F7880F98
S1131500911D9695879597F90895E1E0660F771FE9
S1131510881FBB1F621773078407BA0720F0621B7A
S1131520730B840BBA0BEE1F88F7E09508950E94A5
S11315301A0B88F09F5798F0B92F9927B751B0F03C
S1131540E1F0660F771F881F991F1AF0BA95C9F743
S113155014C0B13091F00E94340BB1E008950C94A2
S1131560340B672F782F8827B85F39F0B93FCCF355
S1131570869577956795B395D9F73EF490958095C0
S1131580709561957F4F8F4F9F4F0895990F000875
S1131590550FAA0BE0E8FEEF16161706E807F90741
S11315A0C0F012161306E407F50798F0621B730BDC
S11315B0840B950B39F40A2661F0232B242B252B5D
S11315C021F408950A2609F4A140A6958FEF811D00
S11315D0811D089597F99F6780E870E060E00895A1
S11315E09FEF80EC089500240A9416161706180637
S11315F00906089500240A94121613061406050613
S11316000895092E0394000C11F4882352F0BB0FA3
S113161040F4BF2B11F460FF04C06F5F7F4F8F4F06
S11316209F4F089557FD9058440F551F59F05F3F41
S113163071F04795880F97FB991F61F09F3F79F0F0
S113164087950895121613061406551FF2CF469572
S1131650F1DF08C0161617061806991FF1CF8695F4
S11316607105610508940895E894BB2766277727D8
S1131670CB0197F908950E94C60A08F48FEF0895E4
S11316800E94530B0C94010B0E94F30A38F00E9441
S1131690FA0A20F0952311F00C94EA0A0C94F00A4B
S11316A011240C94350B0E94120B70F3959FC1F317
S11316B0950F50E0551F629FF001729FBB27F00DFC
S11316C0B11D639FAA27F00DB11DAA1F649F662751
S11316D0B00DA11D661F829F2227B00DA11D621FA0
S11316E0739FB00DA11D621F839FA00D611D221F5A
S11316F0749F3327A00D611D231F849F600D211D3E
S1131700822F762F6A2F11249F5750409AF0F1F0C0
S113171088234AF0EE0FFF1FBB1F661F771F881F29
S113172091505040A9F79E3F510580F00C94EA0A6D
S11317300C94350B5F3FE4F3983ED4F3869577958C
S11317406795B795F795E7959F5FC1F7FE2B880FCF
S1111750911D9695879597F90895F894FFCF0B
S111175E0F0E01040607050C0B010203040024
S9030000FC
